:020000040800F2
:10000000980B0020C10100083F2500086F2400085C
:100010003D250008B90A0008012A00080000000078
:100020000000000000000000000000006325000840
:10003000DD0E00080000000061250008E925000829
:10004000DB010008DB010008DB010008DB01000820
:10005000DB010008DB010008DB010008DB01000810
:10006000DB010008DB010008DB010008DB01000800
:10007000DB010008DB010008DB010008DB010008F0
:10008000DB010008DB010008DB010008DB010008E0
:10009000290B0008DB010008DB010008DB01000878
:1000A000DB010008DB010008DB010008DB010008C0
:1000B000DB01000841260008DB010008DB01000825
:1000C000DB010008DB010008DB010008DB010008A0
:1000D000DB010008BD290008DB010008DB01000886
:1000E000DB010008DB010008DB010008DB01000880
:1000F000DB010008DB010008DB010008DB01000870
:10010000DB010008DB010008DB010008DB0100085F
:10011000DB010008DB010008DB010008DB0100084F
:10012000DB010008DB010008DB010008DB0100083F
:10013000DB010008DB010008DB010008DB0100082F
:10014000DB010008DB010008DB010008DB0100081F
:10015000DB010008DB010008DB010008DB0100080F
:10016000DB010008DB010008DB010008DB010008FF
:10017000DB010008DB010008DB01000800000000D3
:10018000DB010008DB010008DB010008DB010008DF
:10019000DB010008DB010008DB010008DB010008CF
:1001A000DB010008DB010008DB010008DFF80CD0F0
:1001B00000F0E4FB0048004701570008980B0020BE
:1001C0000648804706480047FEE7FEE7FEE7FEE7F1
:1001D000FEE7FEE7FEE7FEE7FEE7FEE7ED250008A7
:1001E000AD01000840EA01039B0703D009E008C9FC
:1001F000121F08C0042AFAD203E011F8013B00F8EC
:10020000013B521EF9D27047D2B201E000F8012B37
:10021000491EFBD270470022F6E710B513460A4686
:1002200004461946FFF7F0FF204610BD10B50446FE
:1002300004E00B7800F8013B03B1491C521EF8D2D0
:10024000204610BD30B505460020034600E05B1C8B
:10025000934205D2EC5CC85C201A01D1002CF6D187
:1002600030BD70B5064602F0F5FB046805460A226B
:100270000021304600F06EFA2C6070BD2DE9FE4F73
:10028000804681EA0300C00F0C46009021F0004137
:1002900023F00045B8EB0200A94105D240462146B3
:1002A00090461C460B46024623F00040104347D0C0
:1002B000270DC7F30A00C3F30A510290401A0190B8
:1002C00040286BDAC3F3130040F4801B0098924679
:1002D00020B10023D2EB030A63EB0B0B01985946C4
:1002E000C0F14002504600F004FA06460D46504662
:1002F0005946019A00F01CFA10EB080061410024F5
:1003000087EA115284EAE7731A4340D0009A62B335
:10031000019A012A4FEA075215DC001B61EB02012A
:100320004FF0004202EA0752CDE90042001C41F5BD
:10033000801132462B4600F08BFA03B0BDE8F08FF7
:1003400040462146F9E7001B61EB0201001C41F524
:10035000801300185B412018A2F5001747EB03013A
:1003600040EAD570B6196D4111E06D084FEA3606C6
:1003700045EAC0754FEA0752001B61EB0201001C01
:1003800041F5801149084FEA3000001951413246C9
:100390002B4603B0BDE8F04F00F04BBA00980122A5
:1003A00040000023D0EB020263EBE073009821468B
:1003B0004FEAE074B8EB000061EB0401E9E783F079
:1003C00000435BE781F0004158E72DE9FE4F81EAE9
:1003D000030404F0004421F0004100944FF0000BAE
:1003E00023F0004350EA01045ED052EA03045BD0DC
:1003F000C3F30A54C1F30A552C44A4F2F334019414
:10040000A0FB0254C1F3130141F48011C3F31303A1
:1004100043F4801301FB024400FB034E840A970A55
:1004200044EA815447EA8357A4FB076802958D0A82
:1004300005FB07854FEA932C04FB0C542705029D0E
:100440004FEA065847EA1637B5EB08056EEB070C7E
:10045000870E920E47EA811742EA8312A7FB020138
:10046000B6EB0B0164EB00042B0D43EA0C335E1872
:1004700044EB1C50DA465146E7FB0201C5F3130476
:100480004FEA0B3343EA14534FEA0432019C43EA28
:100490000603A4F10C040294009CCDE900B400F022
:1004A000D7F903B0BDE8F08F00200146F9E72DE948
:1004B000F04D81EA030404F0004B21F0004514469E
:1004C0004FF0000A23F0004150EA050220D054EA20
:1004D00001021DD0C5F30A570246C5F31303C1F349
:1004E0001300C1F30A5640F4801543F48013A7EBC0
:1004F0000608101BD64608F2FD3873EB050002D340
:1005000008F1010801E092185B41B8F1000F03DA2D
:1005100000200146BDE8F08D00204FF48011064612
:1005200084460EE0171B73EB050705D3121B63EB24
:10053000050306434CEA010C49084FEA30009218C3
:100540005B4150EA0107EDD152EA030012D082EA82
:10055000040083EA0501084305D0101BAB4106D215
:100560000122002306E000224FF0004302E06FF07A
:10057000010253101AEB06004CEB085110EB0A0075
:1005800041EB0B01BDE8F04D00F053B90EB5C10FC2
:1005900080EAE0700844CA07002140F233438DE846
:1005A0000E000A460B4600F053F903B000BD0EB52D
:1005B00040F2334102910021CDE900110A460B4679
:1005C00000F046F903B000BD70B5C1F30A5201F066
:1005D00000450024C1F3130140F2FF3341F48011C0
:1005E0009A4201DA002070BD40F233439A42A2F2EF
:1005F000334203DC524200F08BF800E090402C4381
:10060000F1D0404270BD00F0004230F000400AD00E
:10061000C10D01F56071C0F3160042EA0151C20834
:1006200040071143704700200146704701F0004326
:1006300030B421F0004150EA010206D00A0DA2F5C3
:100640006072C1F31301002A02DC30BC0020704745
:10065000440F44EAC104C100E01830BC00EBC250B2
:1006600000F0B0B830B50B4601460020202201242E
:1006700009E021FA02F59D4205D303FA02F5491B70
:1006800004FA02F52844151EA2F10102F1DC30BD86
:100690002DE9F05F0546002092469B4688460646B7
:1006A000814640241BE0284641464746224600F04A
:1006B0002FF853465A46C01A914110D31146184696
:1006C000224600F016F82D1A67EB01084F46224625
:1006D0000120002100F00DF817EB00094E41201E0B
:1006E000A4F10104DFDC484631462A464346BDE812
:1006F000F09F202A04DB203A00FA02F10020704724
:100700009140C2F1200320FA03F31943904070474F
:10071000202A04DB203A21FA02F00021704721FA56
:1007200002F3D040C2F120029140084319467047BD
:10073000202A06DBCB17203A41FA02F043EAE073A5
:1007400006E041FA02F3D040C2F120029140084392
:10075000194670472DE9F04791460F4680460446FA
:10076000002614F8015B2DB100F01AF90068405D15
:10077000C007F6D12B2D02D02D2D18D0641E4A466D
:100780003946204600F010F927B13968A14201D15D
:10079000C7F8008071054FF002040BD540420028D5
:1007A00003DD02F057F90460A007BDE8F08746F4C6
:1007B0008066E4E70028F8DA02F04CF904606FF094
:1007C0000040F2E70029A8BF7047401C490008BF5D
:1007D00020F00100704710B4B0FA80FC00FA0CF071
:1007E00050EA010404BF10BC704749B1CCF12004A9
:1007F00021FA04F411FA0CF118BF01212143084336
:10080000A3EB0C01CB1D4FEA00614FEA102042BF61
:10081000002010BC704700EBC35010440029A4BF57
:1008200010BC7047401C490008BF20F0010010BCFC
:10083000704710B5141E73F1000408DA401C41F132
:10084000000192185B411A4301D120F0010010BD54
:100850002DE9F04D92469B4611B1B1FA81F202E0CA
:10086000B0FA80F220329046FFF743FF04460F466D
:1008700040EA0A0041EA0B0153465A46084313D0A6
:10088000114653EA010019D0C8F140025046FFF763
:100890003FFF05460E46504659464246FFF729FFA0
:1008A000084305D0012004E020463946BDE8F08D1C
:1008B0000020054346EAE0762C4337430A98630557
:1008C000E40AA0EB08000022FD0A44EA47540A307B
:1008D00002D500200146E9E7010510196941DDE96B
:1008E000084500196941BDE8F04DA2E7C1F30A527D
:1008F000C1F3130140F2FF3341F480119A4202DA4E
:1009000000200146704740F233439A42A2F233423C
:1009100002DC5242FFF7FCBEFFF7EBBE30B5041E0F
:1009200071F1000404DB4FF00044404264EB01012C
:10093000141E73F1000405DB1C464FF000435242C5
:1009400063EB04038B4208BF824230BD30B5041E06
:1009500071F1000404DB4FF00044404264EB0101FC
:10096000141E73F1000405DB1C464FF00043524295
:1009700063EB0403994208BF904230BD064C074D1B
:1009800006E0E06840F0010394E80700984710345F
:10099000AC42F6D3FFF70EFCF05A0008105B0008DB
:1009A00000487047EC5A00082DE9F05F8246007855
:1009B000002715468B460AF10104B946302801D0BC
:1009C0009DB113E014F8010B0127782803D05828B3
:1009D00001D045B10AE00DB1102D07D10027102537
:1009E00014F8010B02E0082500E00A250026B046B5
:1009F0000EE005FB080005FB06F1012701EB1046A0
:100A00001FFA80F8B6F5803F00D3B94614F8010B01
:100A1000294600F018F80028EBDABBF1000F05D0EA
:100A20000FB1641E00E05446CBF80040B9F1000F4E
:100A300006D002F00FF802210160C81EBDE8F09F49
:100A400048EA0640FAE73A2800D2303820F020027F
:100A5000412A01D3A2F13700884201D34FF0FF3081
:100A6000704770B58C1810F8015B15F0070301D1C1
:100A700010F8013B2A1106D110F8012B03E010F801
:100A8000016B01F8016B5B1EF9D12B0705D4002324
:100A9000521E0DD401F8013BFAE710F8013BCB1AC6
:100AA000921C03E013F8015B01F8015B521EF9D5BB
:100AB000A142D8D3002070BDFEE7000070B58AB017
:100AC000184C174E0E9D266004F1400626631C3616
:100AD000666363602261C4E902500025C4E905151C
:100AE0000126E561C4E90856A5622046E56200F0EA
:100AF0002BFB10B101200AB070BD039504950E20A8
:100B000001950295CDE90860CDE906560095059559
:100B10006946044800F0E4F90028ECD00220EAE736
:100B2000006400409C030020014800F04DBA000022
:100B30009C030020002203E02821491EFDD2521C04
:100B40008242F9D3704710B54FF4D872036802EBB4
:100B500001129B5813F00404436B9C600468436BC0
:100B6000A45854D0E4085C6003689A58436B02F0C0
:100B70000202DA604FF4DA72036802EB01129B584A
:100B8000446B03F00F03236103689A58436BC2F36D
:100B90000722DA614FF4DC72036802EB01129B5802
:100BA000446B237503689B58446B1B0A6375036889
:100BB0009B58446B1B0CA37503689A58436B120E29
:100BC000DA754FF4DE72036802EB01129B58446B36
:100BD000237603689B58446B1B0A637603689B5813
:100BE000446B1B0CA37603689A58436B120EDA769B
:100BF0002022002901680DD00A6101684A6922F0AB
:100C000010024A6190F83810222909D021E0640DC1
:100C10001C60A9E7CA6001684A6922F00202F0E795
:100C200001684A6922F480724A6101684A6922F4C3
:100C300000724A6101684A6922F480624A6101686F
:100C40004A6922F400624A6101684A6922F400425A
:100C50004A6190F83810322906D0012180F8381006
:100C600000F04EFB002010BD1221F7E770B588B0F0
:100C7000002508260295CDE903560A24072829D81D
:100C80000F2927D844EA002040EA0110009055209F
:100C90008DF814208DF818008DF815308DF8190096
:100CA0008DF816008DF81A000B4C8DF817008DF892
:100CB0001B002570684600F0D3F8656007E001204E
:100CC000FFF738FF6068401C6060642802D8207815
:100CD0000028F4D008B070BD3800002030B587B0CF
:100CE000002508240295CDE903540123072829D8BB
:100CF0000F2927D843EA002040EA01100090552030
:100D00008DF814208DF818008DF815008DF8190055
:100D10008DF816008DF81A000B4C8DF817008DF821
:100D20001B002570684600F09BF8656007E0012015
:100D3000FFF700FF6068401C6060642802D82078DC
:100D40000028F4D007B030BD3800002030B50022B4
:100D500087B00823029215460728CDE9032329D836
:100D60000F2927D842EA002040EA011000905520C0
:100D70008DF814008DF818008DF815008DF8190005
:100D80008DF816008DF81A000B4C8DF817008DF8B1
:100D90001B002570684600F063F8656007E00120DD
:100DA000FFF7C8FE6068401C6060642802D82078A5
:100DB0000028F4D007B030BD38000020F0B587B06F
:100DC00000250C9C08270295CDE903570626072825
:100DD00040D80F293ED846EA002040EA0110009092
:100DE00041F28830824201DD024608E01A48824220
:100DF00001DA024601E0002A01DA504202B2002B79
:100E000001DA584203B2100A8DF814008DF815204B
:100E1000180A8DF81600200E8DF81800200C8DF899
:100E20001900200A8DF81A008DF81B400B4C8DF824
:100E300017306846257000F013F8656007E0012060
:100E4000FFF778FE6068401C6060642802D8207854
:100E50000028F4D007B0F0BD78ECFFFF3800002088
:100E6000054910B508630A21034800F0F3FA002889
:100E700000D0012010BD00009C03002010B50168C7
:100E80004A6922F001024A6190F83810122918D1FB
:100E900001684A6922F480724A6101684A6922F451
:100EA00000724A6101684A6922F480624A610168FD
:100EB0004A6922F400624A6101684A6922F40042E8
:100EC0004A6190F83810322906D0012180F8381094
:100ED00000F07AFB002010BD2221F7E770470000E8
:100EE000F0B50A7D01209040344A136843F00103B5
:100EF0001360136823F47C53136013684C6A43EA4D
:100F0000042313602D4D1C352B6883432B602B4C21
:100F10002B4BCE690C34A6B92668864326608F8990
:100F20004E6867F31F464F6903EBC707C7F8406673
:100F30000F890E6867F31F464F6903EBC707C7F8B1
:100F40004466CE69012E14D12668064326600E88B9
:100F50004C6866F31F444E6903EBC606C6F840466C
:100F60000E89CC6866F31F444E6903EBC603C3F8D1
:100F70004446124B8C691B1D002C1C6806D0044390
:100F80001C600E4B0C69143314B104E08443F7E782
:100F90001C6884431C600C69012C02D11C6804434A
:100FA0001C60096A012902D129680143296010687F
:100FB00020F0010010600020F0BD0000006600403D
:100FC000006000407047000010B5044600684169A9
:100FD000C943C90714D182685849914368D0002198
:100FE0008368574A9A4365D00022836855489843DE
:100FF00062D000201143014302D02046FFF73EFF9C
:101000002068C168406911F0030FC0F3400004D0AC
:1010100018B100212046FFF796FD2068016940695C
:1010200011F0030FC0F3001004D018B101212046C5
:10103000FFF789FD206881694269C1F300014369B6
:10104000C2F30022C3F3C03329B122B11BB1E16B5B
:1010500041F00101E1638169C1F3400241694369E3
:10106000C1F34021C3F3C0332AB121B11BB1E16BFD
:1010700041F00201E16381694269C1F38001C2F379
:1010800080234269C2F3C03229B123B11AB1E16BA6
:1010900041F00401E163816911F0700F0ED000216D
:1010A0004269C2F3C0234269C2F3C03241B127E0B2
:1010B000012195E7012298E701209BE70121EFE755
:1010C000F3B1EAB1816901F07001402929D006DC51
:1010D000102909D020290BD030290DD11DE050292D
:1010E00023D0602908D124E0E16B41F0080102E03F
:1010F000E16B41F01001E163816921F070018161D0
:10110000E06B002808D0216804204860012084F8A2
:1011100038002046FFF756FF10BDE16B41F020017B
:10112000E9E7E16B41F04001E5E7E16B41F0800167
:10113000E1E7E16B41F48071DDE7000003000004AA
:1011400000030008000003102DE9F041040004D062
:1011500094F83800002518B107E00120BDE8F081BF
:1011600084F83950204600F091F8022084F83800C5
:101170002068016821F0020101602068016841F0E7
:101180000101016000F016FB0746032604E000F0B1
:1011900011FBC01B0A2862D820684068C007F6D03F
:1011A00020684168C90767D0A169012901683FD05B
:1011B00021F080010160E0690128206801683AD0CF
:1011C00021F040010160206A01282068016835D0C3
:1011D00021F020010160606A01282068016830D098
:1011E00021F010010160A06A0128206801682BD05D
:1011F00021F008010160E06A01282068016826D01A
:1012000021F004010160D4E902010843D4E9041289
:10121000114308436168491E08432168C86120687A
:10122000016821F00101016000F0C4FA07461BE0EB
:1012300041F08001BEE741F04001C3E741F02001E9
:10124000C8E741F01001CDE741F00801D2E741F0D5
:101250000401D7E700F0AEFAC01B0A2804D904F84D
:10126000386F0320657079E720684068C007F1D1C6
:1012700020684068C00703D0042084F838006CE779
:10128000E563012084F83800002067E7194800B5BD
:10129000016887B041F000710160006800F00070E3
:1012A000059014481038016841F0010101600068A0
:1012B000012100F0010005904FF4C0500090022081
:1012C000CDE9010103900920049069460A4800F025
:1012D0007DF90A480068416941F00201416102223A
:1012E0000121142000F0AEFA142000F0A0FA07B09B
:1012F00000BD000040380240000002409C03002076
:10130000524910B50868426942F002024261486BD6
:10131000816800292DD1016908292AD14B4A016829
:10132000803202F10C0302F118041B2922D02B2970
:101330002ED03B293AD04B2946D05B2952D06B297D
:101340005ED00122424B1F2968D02F2968D03F2947
:1013500068D04F2968D09A1D931D1C2966D02C296E
:1013600069D03C296CD04C2903D1017DD170407DDE
:10137000D87010BD818A49BA1180C18A49BA1980D2
:101380008169C07E09BA21F0FF010143216010BDCF
:10139000818A49BA5180C18A49BA59808169C07E1F
:1013A00009BA21F0FF010143616010BD818A49BA89
:1013B0009180C18A49BA99808169C07E09BA21F0B9
:1013C000FF010143A16010BD818A49BAD180C18A61
:1013D00049BAD9808169C07E09BA21F0FF01014371
:1013E000E16010BD818A49BA1181C18A49BA198167
:1013F0008169C07E09BA21F0FF010143216110BD5E
:10140000818A49BA5181C18A49BA59818169C07EAC
:1014100009BA21F0FF010143616110BD1A7010BDCE
:101420005A7010BD9A7010BDDA7010BD017D117038
:10143000407D187010BD017D5170407D587010BD09
:10144000017D9170407D987010BD00009C030020CC
:10145000240000202DE9F05F044690F839000E4684
:10146000012812D04FF0010984F8399094F838001F
:1014700022280DD0122084F83800216888684FF0A7
:101480000008400106D500250DE00220BDE8F09FD0
:101490003220F0E78868000101D5012503E0886863
:1014A000C0004FD502254FF4C07000EB05100A585C
:1014B00002F001020A50216B8A68EAB323681F58C0
:1014C0001743CA68496842EAC1010F431F50216BA4
:1014D0000A7C02F00F020A614FF4C271226801EB2C
:1014E0000511535823F00F03535022685358276BAC
:1014F0003F693B435350216B4FF4C47303EB051317
:101500000A7DD1F8151042EA01222168CA50216BE8
:101510004FF4C67303EB05130A7ED1F8191042EAA3
:1015200001212268D15021680A5842F001020A5074
:1015300000F040F9074600E00BE0DFF880A0DFF89C
:1015400080B01DE0042084F8380084F83980012040
:101550009CE722681358CF6809883B4343EA41510E
:101560001150B4E7701C0BD026B100F023F9C01B5A
:10157000B04205D9032084F8380084F8398085E723
:1015800095B12068012D816813D00E48884300284A
:10159000E8D194F8380032280ED0484684F8380054
:1015A00084F83980002071E7206881682AEA010008
:1015B000EDE72BEA0100EAE72220EFE70300000451
:1015C0000003000800000310704700002DE9F84FE9
:1015D000DFF8A091002209F1040A0AF1040B4FF090
:1015E0000F080BF1040E01260B6896403340B342FE
:1015F00071D14C68022C01D0122C11D1D40800EB0F
:1016000084073D6A5407E40E08FA04FC25EA0C0539
:10161000D1F810C00CFA04FC4CEA050CC7F820C045
:1016200007685400032591F804C0A5400CF0030C92
:10163000AF430CFA04FC4CEA070CC0F800C04F683A
:10164000012F05D0022F03D0112F01D0122F11D15D
:101650008768D1F80CC0AF430CFA04FC4CEA070CC5
:10166000C0F808C04768B7430E79C6F30016964025
:101670003E434660C668AE438D68A5403543C560AD
:101680004C68E4006FD53C4C256845F480452560E6
:10169000246822F0030504F480440094374C2E198A
:1016A000D6F808789407250F08FA05F4A743344CB8
:1016B000A04201D100242EE0324CA04201D10124ED
:1016C00029E0314CA04201D1022424E02F4CA04259
:1016D00002D103241FE046E02D4CA04201D1042496
:1016E00019E02C4CA04201D1052414E02A4CA04260
:1016F00001D106240FE0294CA04201D107240AE0C1
:10170000274CA04201D1082405E0264CA04201D17B
:10171000092400E00A24AC403C43C6F80848D9F844
:1017200000404D464E689C43F60300D51C432C6098
:10173000DAF8004055464E689C43B60300D51C437A
:101740002C60DBF800405D464E689C43F60200D5F5
:101750001C432C60DEF8004075464E689C43B60280
:1017600000D51C432C60521C102AFFF43CAFBDE88E
:10177000F88F0000003C0140443802400030014036
:10178000000002400004024000080240000C024039
:10179000001002400014024000180240001C0240E9
:1017A00000200240002402400AB181617047090410
:1017B000FBE70000014800687047000014000020AB
:1017C00002480168491C01607047000014000020B5
:1017D0000B4810B5016841F400710160016841F4E3
:1017E00080610160016841F480710160052000F0B2
:1017F00049F80F2000F006F800F015F8002010BDA1
:10180000003C024010B5044600F096F94FF47A719E
:10181000B0FBF1F000F0AAFB00222146501E00F0C0
:1018200011F8002010BD08B50020009008BD00F0A0
:101830001F02012191404009800000F1E020C0F822
:1018400000117047F0B40E4B1B68C3F30223C3F1C1
:101850000704042C00D904241D1D072D01D20023E8
:1018600000E0DB1E012606FA04F56D1E0D409D40CA
:101870009E40761E164045EA0601F0BC00F060BEB0
:101880000CED00E0064A00F0070110684FF6FF0378
:10189000184040EA012003490843106070470000E7
:1018A0000CED00E00000FA052DE9F8431D48016841
:1018B00041F0805101600068012700F080500090E5
:1018C000380490FAA0F0DFF86080B0FA80F048F8B1
:1018D0002070FFF76FFF04464FF47A75134E04E053
:1018E000FFF768FF001BA84213D87068C003F7D544
:1018F0004FF4003090FAA0F0B0FA80F048F8207071
:10190000FFF758FF044607E0FFF754FF001BA8420B
:1019100002D90320BDE8F88370688003F4D5002065
:10192000F8E700004038024000000E42007000401E
:101930002DE9F05FDFF8F8A104460F46DAF8000061
:10194000DFF8F08100F00F02C8B27A49814641F217
:10195000883608F10808BA4261D202468AF80020A7
:10196000DAF8000000F00F00B8427DD1207880073F
:1019700007D5D8F80020A36822F0F0021A43C8F86F
:1019800000202078C0072DD0606801281AD00228D6
:101990001BD0032819D009688907002964DAD8F810
:1019A0000010474621F003010143C8F80010FFF77B
:1019B00001FF0546606801280FD0022818D00328CF
:1019C0001CD027E009688903E7E709688901E4E793
:1019D000FFF7F0FE401BB04258D83868C0F38100D2
:1019E0000128F5D188E0FFF7E5FE401BB0424DD855
:1019F0003868C0F381000228F5D17DE03868FFF730
:101A0000D9FE401BB042F9D940E0FFF7D3FE401B9E
:101A1000B0423BD8386810F00C0FF6D16CE020785B
:101A2000800707D5D8F80020A36822F0F0021A43F7
:101A3000C8F800202078C0074CD06068012828D062
:101A4000022829D0032827D009688907002949DA04
:101A5000D8F8002022F003020243C8F80020FFF764
:101A6000A9FE0546606800E03CE001281DD0022880
:101A700029D0032838D0B3464646306810F00C0F02
:101A800028D0FFF797FE411B5945F6D90320BDE842
:101A9000F09F09688903D9E709688901D6E7FFF74C
:101AA00089FE411B594502D9F0E7B34646463068E6
:101AB000C0F381000128F2D10CE0FFF77BFE411B4F
:101AC000594502D9E2E7B34646463068C0F3810083
:101AD0000228F2D18AF80090DAF8000000F00F0036
:101AE000B84209D00120D2E744462068FFF762FEE1
:101AF000401BB042F9D9C9E72078400707D5D8F88C
:101B00000010E26821F4E0511143C8F80010207879
:101B1000000708D5D8F80010226921F4604141EA95
:101B2000C201C8F800100F20FFF76CFE0020AEE7DE
:101B3000003C02400038024010B500F043F808496C
:101B40000968F02292FAA2F201F0F001B2FA82F2F0
:101B5000D140044A515CC8400349086010BD0000F0
:101B600008380240DC5800080000002010B5FFF7DC
:101B7000E3FF074909684FF4E05292FAA2F201F438
:101B8000E051B2FA82F2D140024A515CC84010BD25
:101B900008380240DC58000810B5FFF7CDFF0749B0
:101BA00009684FF4604292FAA2F201F46041B2FA7D
:101BB00082F2D140024A515CC84010BD0838024050
:101BC000DC58000830B51948006810F00C011848BE
:101BD00012D0184C04290ED008290DD1134A121F17
:101BE0001168136801F03F015D0247F6C07304D528
:101BF000B4FBF1F003E0204630BDB0FBF1F011681A
:101C0000194093FAA3F3B3FA83F3D9404843116818
:101C10004FF4403292FAA2F201F44031B2FA82F269
:101C2000D140491C4900B0FBF1F030BD08380240FA
:101C30000024F40040787D012DE9F84F0446007837
:101C4000DFF8FCA2BF4DC0074FF0000648D0DAF81D
:101C500000105046C1F38101012908D00068C0F38B
:101C6000810002280AD1281D0068400206D5286894
:101C7000800335D56068002873D031E0DFF8C49266
:101C800009F1020989F80060FFF794FD074641F267
:101C9000883804E0FFF78EFDC11B41457AD82868DB
:101CA0008003F7D4207989F80000606860B1FFF7FD
:101CB00081FD074604E0FFF77DFDC11B4145EDD8DE
:101CC00028688003F7D50BE0FFF774FD074604E0B2
:101CD000FFF770FDC11B4145E0D828688003F7D4A9
:101CE0002078DFF86492800744D5DAF80010504677
:101CF00011F00C0F4FF0F80809D00068C0F3810014
:101D000002280BD18E48001F0068400206D42868C4
:101D1000800714D5E068012823D110E0E068D0B135
:101D20000120C9F80000FFF745FD074604E0FFF772
:101D300041FDC01B6428B1D828688007F7D5286802
:101D400098FAA8F22169B2FA82F220F0F8009140E4
:101D5000084328600EE0C9F80060FFF72BFD074636
:101D600005E0EAE0FFF726FDC01B642812D82868CA
:101D70008007F7D42078000725D5DFF8C4817348A1
:101D8000616908F16C0881B101210160FFF712FD62
:101D9000074605E07EE0FFF70DFDC01B642879D8FB
:101DA000D8F800008007F6D50DE00660FFF702FDC9
:101DB000074604E0FFF7FEFCC01B64286AD8D8F889
:101DC00000008007F6D42078400753D55C483830AF
:101DD000016841F0805101600068DFF8748100F013
:101DE00080500090D8F8001041F48071C8F80010BD
:101DF000FFF7E0FC074604E0FFF7DCFCC01B6428AB
:101E000048D8D8F80000C005F6D5DFF834B10BF19A
:101E1000680B8BF80060FFF7CDFC074641F288386D
:101E200004E0FFF7C7FCC11B41457ED8DBF800008A
:101E30008007F6D4207A8BF80000A06868B1FFF71D
:101E4000B9FC074604E0FFF7B5FCC11B41456CD85F
:101E5000DBF800008007F6D50CE0FFF7ABFC074687
:101E600004E0FFF7A7FCC11B41455ED8DBF800008A
:101E70008007F6D4A069E8B3DAF80010C1F3810155
:101E800002295AD0022806D0C9F86060FFF792FCF8
:101E900004464DE049E04F46C9F86060FFF78AFC10
:101EA000064604E0FFF786FC801B64283DD82868BE
:101EB0008001F7D4D4E90701084347F6C07191FACD
:101EC000A1F1626AB1FA81F18A40A16A4FF0FF3351
:101ED00003EB51014FF4403393FAA3F3B3FA83F3C6
:101EE00099400A4310434FF0706292FAA2F2B2FA9C
:101EF00082F200E01FE0E16A914008431049091FA7
:101F0000086001203866FFF755FC044604E0FFF73F
:101F100051FC001B642808D828688001F7D50AE026
:101F2000FFF748FC001B642802D90320BDE8F88FA6
:101F300028688001F4D40020F8E70120F6E70000CB
:101F4000083802400038024000004742800E4742F5
:101F5000007000404FF0E0210428086903D020F011
:101F600004000861704740F00400FAE710B5401E15
:101F7000B0F1807F01D3012010BD4FF0E0246061FB
:101F80000F21601700F0DCFA0020A061072020611B
:101F9000002010BD7047704710B5040003D094F8BE
:101FA000390010B107E0012010BD002084F838008E
:101FB000204600F00DF8022084F83900211D206829
:101FC00000F05AFB012084F83900002010BD000009
:101FD00008B500680B49884212D10B48016841F0EE
:101FE000020101600068032200F00200009001215C
:101FF0001D20FFF727FCBDE808401D20FFF717BC98
:1020000008BD000000040040403802400168CA6872
:1020100042F00102CA600068016841F001010160FC
:10202000002070470168CA6822F00102CA60006897
:10203000016A41F21112114207D1016A9210114254
:1020400003D1016821F00101016000207047704751
:1020500070B50446006801694FF00005C94389075F
:1020600015D4C168C943890711D4E91E0161012053
:102070002076206880698007204602D0FFF7E7FFBE
:1020800004E000F098F8204600F096F825762068E5
:102090000169C943490717D4C168C943490713D423
:1020A0006FF004010161022020762068806910F43D
:1020B000407F204602D0FFF7CAFF04E000F07BF823
:1020C000204600F079F8257620680169C9430907A0
:1020D00016D4C168C943090712D46FF00801016121
:1020E000042020762068C0698007204602D0FFF7D0
:1020F000AEFF04E000F05FF8204600F05DF82576C2
:1021000020680169C943C90617D4C168C943C90613
:1021100013D46FF010010161082020762068C06997
:1021200010F4407F204602D0FFF791FF04E000F05A
:1021300042F8204600F040F8257620680169C9433E
:10214000C90708D1C168C943C90704D1891E016103
:10215000204600F033F820680169C943090609D414
:10216000C168C943090605D46FF0800101612046AA
:10217000FFF710FF20680169C943490609D4C16807
:10218000C943490605D46FF040010161204600F0C3
:1021900021F820680169C94389060BD4C168C94385
:1021A000890607D46FF0200101612046BDE8704028
:1021B000FFF7F1BE70BD70477047000003498842C9
:1021C00003D103480168491C016070476C05002079
:1021D000500000207047704790F83900704738B5BC
:1021E000016804460868CA68C0F3000002F48072FF
:1021F00038B132B1086848680090E06B40F00100E7
:10220000E06308684A69C0F3400002F0010238B197
:1022100032B1086848680090E06B40F00400E06369
:1022200008684A69C0F3800002F0010238B132B197
:10223000086848680090E06B40F00200E0630868BE
:102240004A69C0F3C00002F0010238B132B1086837
:1022500048680090E06B40F00800E0630868C968D7
:10226000C0F3401001F0200118B111B1204600F078
:1022700063FA20680168C068C1F3C01100F08000F3
:1022800019B110B1204600F065FB21680868CA68E2
:10229000C0F3801002F04002012568B162B1CA6843
:1022A000204622F04002CA6094F8391032290CD03E
:1022B00080F8395000F0DAF8E06B002804D084F898
:1022C00039502046FFF787FF38BD222180F83910AA
:1022D000F0E770B5040004D094F83900002510B17F
:1022E00006E0012070BD84F83850204600F020F848
:1022F000022084F839002068C16821F40051C160CF
:10230000204600F06DFA2068016921F490410161D6
:102310002068416921F02A0141612068C16841F4C7
:102320000051C160E563012084F83900002070BDD0
:1023300010B500681A4986B088422FD11948016843
:1023400041F001010160006800F0010005901548AE
:102350001430016841F0100101600068012100F0B3
:10236000100005904FF4007000900220CDE90101AB
:10237000039007200C4C049069462046FFF726F98D
:102380002115009169462046FFF720F92520FFF727
:102390004EFA032211462520FFF754FA06B010BD6D
:1023A00000100140303802400000024090F83930FF
:1023B000012B01D0122B2BD131B32AB390F8383036
:1023C000012B25D0012380F8383081628285C285B7
:1023D0000022C26390F83910122917D0222180F808
:1023E00039100168CB6843F48073CB6001684B6996
:1023F00043F001034B6180F838200068C16841F068
:102400002001C16000207047012070473221E6E7BB
:102410000220704730B50068114988420CD1114A3A
:102420005088010408D41146440409784FF0000391
:1024300006D50A2901D0538030BD40F400400DE09C
:102440000D2909D0C0F30D04074D401C80B2295559
:102450005080C728EFD830BD40F48040508030BD58
:10246000001001401C000020940200207047FEE78D
:1024700070B51B4886B00025016841F0010101607C
:10248000016801F001010591016841F0040101605A
:10249000016801F004010591016841F080010160CB
:1024A0000068032400F08000059002200126CDE999
:1024B0000204CDE9006569460A48FFF787F8700312
:1024C00003948DE8610069460748FFF77FF80C2008
:1024D000009069460548FFF779F806B070BD000026
:1024E000303802400000024000080240001C024058
:1024F000104810B5016886B041F002010160006823
:10250000012100F0020005900320CDE90210CDE981
:102510000001094C69462046FFF758F80122114690
:102520002046FFF741F9012202212046FFF73CF93E
:1025300006B010BD3038024000040240FEE770478C
:102540000907090E002806DA00F00F0000F1E0206C
:1025500080F8141D704700F1E02080F800147047E7
:102560007047704770B51E4C92B00025266846F043
:1025700080562660246804F080541194194C266813
:1025800046F44046266024680DF1240C04F44044CF
:102590001194012400940194022406948CE80D0007
:1025A0006605CDE907616846FFF746FB00B1FEE727
:1025B000FFF77AF900B1FEE70CA90F2081E831009E
:1025C0004FF4A0500F904FF48050109005210CA8AC
:1025D000FFF7AEF9002800D0FEE712B070BD000092
:1025E0004038024000700040FFF7EAB81048016828
:1025F00041F4700101600F48016841F00101016080
:102600000C4A00210832116002680B4B1A4002602C
:10261000031D0A4A1A60026822F4802202600548FB
:102620000C3001600249580680390860704700008C
:1026300088ED00E000380240FFFFF6FE1030002475
:102640000148FFF705BD00006C050020094A10B5E0
:10265000074BC2E900310021C2E9021010461161A6
:10266000FFF79AFCBDE810400248FFF7CFBC00001E
:10267000000400406C050020F0B50268234D244E94
:10268000244FDFF894C0254B4FF0804EA84209D06C
:10269000704507D0B04205D0B84203D0604501D0A4
:1026A000984203D122F070044A682243A8421BD00A
:1026B000704519D0B04217D0B84215D0604513D03C
:1026C000984211D0164CA0420ED0164CA0420BD00E
:1026D000154CA04208D0154CA04205D0144CA04285
:1026E00002D0144CA04203D122F44074CA682243A1
:1026F00002608A68C2620A688262A84201D0984277
:1027000001D10969016301214161F0BD000001406F
:102710000004004000080040000C0040000401409C
:1027200000400140004401400048014000180040C2
:10273000001C00400020004010B590F839102229FC
:1027400003D0322901D0022010BD8168B1F5805F2D
:1027500011D00169002901681FD0496801F07F0389
:10276000816A4A1C82620B70C18D491E0904090CE2
:10277000C18518D02FE00269816A002A0268526878
:1027800005D0D2B20A80816A491C8162ECE7C2F3AB
:1027900008020A80816A891CF7E74A68816A4B1C33
:1027A00083620A70E0E70168CA6822F02002CA600A
:1027B00090F83910322910D00168CA6822F480726A
:1027C000CA6001684A6922F001024A61012180F869
:1027D0003910FFF71FFE002010BD1221F7E700009F
:1027E0002DE9F041044600680169E26821F4405196
:1027F0000A4302612068C16849F20C62914323696F
:10280000A268E5691A4363692B431A430A43C2600D
:102810002068416921F44072A16911434161E06976
:1028200064263225B0F5004F484A494920681DD03A
:10283000884201D0904269D1FFF7AEF900EBC001A8
:1028400001EB00106168B0468900B0FBF1F1B1FB0B
:10285000F8F6FFF7A1F900EBC00101EB0010616889
:102860008900B0FBF1F7FFF797F968E0884201D0E3
:10287000904219D1FFF790F900EBC00101EB001075
:102880006168B0464900B0FBF1F1B1FBF8F6FFF723
:1028900083F900EBC00101EB001061684900B0FB57
:1028A000F1F7FFF779F918E0FFF760F900EBC001E5
:1028B00001EB00106168B0464900B0FBF1F1B1FBDB
:1028C000F8F6FFF753F900EBC00101EB0010616867
:1028D0004900B0FBF1F7FFF749F900EBC00101EB4C
:1028E000001061684900B0FBF1F1B1FBF8F06FF046
:1028F0001801484307EB800005EB0011B1FBF8F02D
:10290000216866F31F108860BDE8F081FFF72EF99B
:1029100000EBC00101EB00106168B0468900B0FB1C
:10292000F1F1B1FBF8F6FFF721F900EBC00101EB83
:10293000001061688900B0FBF1F7FFF717F900EBB1
:10294000C00101EB001061688900CCE70014014070
:102950000010014090F83910122903D0322901D01B
:10296000022070478168B1F5805F016A0BD04A1C74
:102970000262026809785160C18C491E0904090C81
:10298000C1840ED017E009880268C1F308015160C4
:1029900001690029016A02D0491C0162ECE7891C27
:1029A000FBE70168CA6822F08002CA600068C1685B
:1029B00041F04001C16000207047000070B5002464
:1029C0000C4D0D48FFF70BFC02E0641CAC4204D830
:1029D0000948FFF701FC0128F7D1002402E0641C3C
:1029E000AC4206D8012205490348FFF7DFFC002866
:1029F000F5D170BDFFFF01005C0300201C0000202A
:102A0000FEE700000FB4054B10B503A9044A029875
:102A100000F086FF10BC5DF814FB0000BD4200080A
:102A20002000002003B401984100009850EAC12022
:102A300018BF04204A0D18BF40F0010040F2FF7299
:102A4000B2EB515F08BF40F00200012808BF05202B
:102A500002B0704700487047540200200000000098
:102A600010B52F499FED2C1B2DED020B84B005985E
:102A700020F000408842D8BF9DED040B2DDD294990
:102A8000884209D1049840B94FF0010000F090FE4F
:102A900000F04EFE06B010BD05DB9DED040B00F00E
:102AA0003BFE06B010BD68469DED040B00F04CFAED
:102AB00010F0030004BF9DED021B9DED000B0CD038
:102AC00001280ED09DED021B9DED000B022817D0B2
:102AD000012000F089FD06B010BD00F051FC06B0E9
:102AE00010BD9DED021B9DED000B012000F07CFD53
:102AF00051EC100B81F0004106B041EC100B10BD01
:102B000000F03EFC51EC100B81F0004106B041ECAE
:102B1000100B10BD000000000000000000000000CD
:102B2000FB21E93F0000F07F70B52DED020B2DED8C
:102B30000A8B82B00D98C40F20F00045AE48854244
:102B400048D3AE48854219D30C99C5F31300084306
:102B500009D09DED0C0B02B0BDEC0A8B02B0BDE8B4
:102B6000704000F0D9BD002C14BF9FEDA50B9DED6A
:102B70000C0B02B0BDEC0A8B02B070BD9FEDA20B36
:102B800053EC102B9DED0C0B51EC100BFDF7DEFE02
:102B90000AD2022000F00CFE02B0BDEC0A8B02B09B
:102BA000BDE8704000F0D4BD9FED990B53EC102BA5
:102BB0009DED0C0B51EC100BFDF7B0FE0AD202207C
:102BC00000F0F6FD02B0BDEC0A8B02B0BDE870402B
:102BD00000F0CEBD90489FED92BBA8425CD29248D7
:102BE000854219D29148784400EBC40090ED000B67
:102BF00053EC102B9DED0C0B51EC100BFDF7DFFB94
:102C000041EC1A0B8A48784400EBC40090ED009B1D
:102C1000C4F10100041B36E09FED870B53EC102B31
:102C20009DED0C0B51EC100BFDF7CFFB41EC100BA5
:102C30008348784400EBC40090ED001B51EC100B6E
:102C400053EC112BFDF71AFBFDF7BEFC0446FDF714
:102C50009DFC41EC180B9FED7C0B53EC102BFDF70A
:102C6000B4FB9DED0C1B53EC112BFDF7ABFB41ECC2
:102C70001A0B9FED770B51EC180B53EC102BFDF753
:102C8000A4FB41EC190B51EC1A0B53EC192BFDF77B
:102C900096FBCDE90C011BE06F48854217D29FEDF2
:102CA000700B53EC102B9DED0C0B51EC100BFDF742
:102CB000E5FA53EC1B2BFDF749FE08D29DED0C0BFA
:102CC00053EC1B2B51EC100BFDF7D8FA6EE00024EF
:102CD0009DED0C0B53EC102B51EC100BFDF775FB1D
:102CE00041EC180B60480521B0EE480AF0EE680A86
:102CF000784400F0FDFB53EC182B51EC100BFDF762
:102D000064FB9DED0C1B53EC112BFDF75BFB41ECC1
:102D1000180B9FED570B5CB353EC182B51EC100BB9
:102D2000FDF74DFB9DED0C0B41EC1C0B53EC182BF0
:102D300051EC100BFDF749FB53EC1C2BFDF7B7FBD7
:102D400053EC192BFDF73EFB53EC1A2BFDF737FB29
:102D500053EC1B2BFDF736FBCDE900016FF47F70C0
:102D6000844226DB01EB045001909DED000B00E74F
:102D700053EC102B51EC180BFDF721FB9DED0C0BC8
:102D800041EC190B53EC182B51EC100BFDF71DFB0C
:102D900053EC192BFDF78BFB9DED0C1B53EC112B0A
:102DA000FDF70DFB53EC1B2BFDF70CFB41EC100B5F
:102DB000DFE608464FF07A5101EB04519FED2E0BF0
:102DC000084453EC102B01909DED000B51EC100BBF
:102DD000FDF7FBFA0D4645EC100B044651EC100BC9
:102DE000FFF720FE042808BF00F0C2FC45EC104BA2
:102DF000BFE6000000000000422E86400000F07F89
:102E00000000000000000000EF39FAFE422E86406C
:102E100051302DD5104987C0422ED63F000000000A
:102E2000000000000000F03FB2A2F03F162D0000AD
:102E3000062D000000000000FE822B654715F73FBD
:102E4000BA2C0000000000000000E0FE422EE63F29
:102E5000763C7935EF39EA3D0000303E0000000055
:102E60009C7500883CE4377E2C2C0000000000009C
:102E700000000000000000400000000000007001A1
:102E800010B52F499FED2C1B2DED020B84B005983A
:102E900020F000408842DCBF00209DED040B32DDB5
:102EA0002849884209D1049840B94FF0010000F048
:102EB0007FFC00F03DFC06B010BD05DB9DED040B72
:102EC00000F02AFC06B010BD68469DED040B00F032
:102ED0003BF810F0030011D0012818D09DED021B23
:102EE0009DED000B02281AD000F04AFA51EC100BAD
:102EF00081F0004106B041EC100B10BD9DED021BAE
:102F00009DED000B012000F06FFB06B010BD9DEDA4
:102F1000021B9DED000B00F033FA06B010BD01203E
:102F200000F062FB51EC100B81F0004106B041EC67
:102F3000100B10BD000000000000000000000000A9
:102F4000FB21E93F0000F07F2DE9F14F04462DED14
:102F5000020B2DED088B8AB09FEDE70B80ED020B85
:102F6000139EE74826F0004585420ADC9DED120BD2
:102F7000002084ED000B0AB0BDEC088B03B0BDE867
:102F8000F08FE0489FEDE0AB9FEDE1BBA84247DD4D
:102F9000E14F9FEDE39B9FEDE48B9DED120B53EC16
:102FA0001A2B51EC100B002E1CDDFDF708FA41EC3A
:102FB000100BBD4208D053EC1B2B51EC100BFDF74E
:102FC000FEF9C4E900010BE053EC192B51EC100B96
:102FD000FDF7F5F953EC182BFDF7F1F9C4E9000101
:102FE0000120C8E7FDF74AF941EC100BBD4208D0BB
:102FF00053EC1B2B51EC100BFDF740F9C4E9000119
:103000000BE053EC192B51EC100BFDF737F953EC97
:10301000182BFDF733F9C4E900014FF0FF30AAE7A0
:10302000C348A84279DB9DED120B51EC100B01F067
:1030300038F941EC180B9FEDC00B53EC102BFDF74A
:10304000C4F99FEDBF1B53EC112BFDF717F9FDF7EA
:10305000BBFA0746FDF79AFA41EC190B53EC1A2B11
:10306000FDF7B3F953EC182BFDF7ACF941EC180B55
:1030700053EC1B2B51EC190BFDF7A7F9DFF8C8A295
:1030800041EC100B4FEA15580125FA4453EC102B74
:1030900051EC180BFDF793F9032DC4E900013DD065
:1030A000C1F30A5005EB4511A8EB0000113981422C
:1030B00034DA0AEB051BB0EE48AA9BED000BF0EEEC
:1030C00068AA53EC102B51EC190BFDF77EF941EC7B
:1030D0001B0B51EC1A0B53EC1B2BFDF770F941EC59
:1030E000180B51EC1A0B53EC182BFDF768F953EC45
:1030F0001B2BFDF764F99BED020B41EC1A0B53EC13
:10310000102B51EC190BFDF760F953EC1A2BFDF75E
:1031100056F941EC100B6D1CB8E70EE0002EA8BF6D
:103120003846BFF628AF94ED000B51EC100B81F040
:103130000041C4E9000178421DE7C6F3130040F4E2
:10314000801EC6F30A50A0F2F530471100F01F05AB
:10315000C5F12000DDF848B00890002006900790E7
:103160000520EC467949002D07EB0002794408BFA1
:1031700051F8221009D051F8223001EB8201AB4006
:103180004A68089922FA01F11943A1FB0E26A1FB16
:103190000B131A449A4234BF0123002303EB0608A1
:1031A0000CEB8003D3E901A60E448E4234BF01210B
:1031B000002192448A4411B1924502D903E092451C
:1031C00001D2012100E00021C3E901A641444CF8ED
:1031D0002010011EA0F10100C4DC029800F1005093
:1031E000850F0298DDE903678000DDF81480FDF7A4
:1031F000CDF941EC1A0B3046FDF7D9F99FED541B80
:1032000053EC112BFDF7E1F841EC1B0B3846FDF7B1
:10321000CEF99FED511B53EC112BFDF7D6F841EC85
:10322000180B4046FDF7C3F99FED4D1B53EC112BD6
:10323000FDF7CBF841EC190B51EC180B53EC192BA3
:10324000FDF71CF853EC1B2BFDF718F853EC1A2B69
:10325000FDF714F8CDE90801002008909DED080B5A
:1032600053EC1A2B51EC100BFDF7A9F853EC1B2B68
:10327000FDF7A5F853EC182BFDF7A1F853EC192B2B
:10328000FDF7A0F89FED381B53EC112BFDF79DF8CF
:103290009FED370B41EC180B53EC102B9DED080BF9
:1032A00051EC100BFDF791F853EC182BFCF7E6FFEF
:1032B0009FED310B41EC180B53EC102B9DED080BDF
:1032C00051EC100BFDF781F853EC182BFCF7D6FFEF
:1032D00041EC100B139810F0004F06D06D4251ECEA
:1032E000100B81F0004141EC100B284684ED000BDF
:1032F00041E60000000000000000000000000000A7
:10330000FB21E93F7CD9024000004054FB21F93FFA
:103310003163621A61B4D03DFB21F93F0000000027
:103320000000601A61B4D03D7370032E8A19A33B6C
:10333000FB2139410000000083C8C96D305FE43FC4
:10334000000000000000E03FEA28000038280000EC
:10335000000000000000103E000000000000103CD3
:10336000000000000000103A182D4454FB21F93DE4
:103370003326A611460B113C00000054FB21F93DF9
:1033800010B52DED040B2DED088B82B0B0EE419AF7
:10339000F0EE619A0B9820F000449FED4BABB4F136
:1033A000795F11DA9DED0A0B51EC100BFDF70CF96A
:1033B000002801BFB0EE4A0AF0EE6A0A02B0BDEC86
:1033C000088B04BF04B010BD9DED0A0B53EC102B0D
:1033D00051EC100BFCF7F9FF41EC180B3C480621AF
:1033E000B0EE480AF0EE680A784400F081F853EC39
:1033F000182B51EC100BFCF7E8FF9DED0A0B41EC8C
:103400001B0B53EC192B51EC100BFCF7DEFF41ECBE
:10341000190B53EC1B2B51EC180BFCF7D6FF53EC9C
:10342000192BFCF7CCFF9FED2C0B41EC190B53EC47
:10343000102B51EC180BFCF7C8FF41EC100B28487F
:10344000844210DA53EC192B51EC100BFCF7B7FF48
:1034500053EC1A2BFCF7B6FF41EC100B02B0BDEC9D
:10346000088B04B010BD1F48A042BCBF9FED1E1BBF
:103470008DED001B06DBA4F50010019000200090EC
:103480009DED001B51EC100B53EC112BFCF797FF3B
:103490009DED000B41EC180B53EC102B51EC1A0B6B
:1034A000FCF78DFF41EC1A0B53EC192B51EC180B68
:1034B000FCF785FF53EC1A2BFCF784FF41EC100B53
:1034C000CCE7000000000000000000000000F03F1A
:1034D0005C25000000000000000000000000E03F4C
:1034E0003333D33F0000E93F000000000000D23F2B
:1034F00070B504462DED028B4D1E00EBC500B0EEFD
:10350000408AF0EE608A90ED000B35F0060017D08F
:1035100053EC182B51EC100BFCF757FF41EC100B40
:103520006D1E04EBC50090ED001B51EC100B53EC2D
:10353000112BFCF7A3FE41EC100B35F00600E7D190
:10354000022D36D0042D1CD0062D1CBFBDEC028BE5
:1035500070BD53EC182B51EC100BFCF736FF94EDBB
:103560000A1B53EC112BFCF789FE53EC182BFCF7CC
:103570002CFF94ED081B53EC112BFCF77FFE41EC64
:10358000100B53EC182B51EC100BFCF71EFF94EDB5
:10359000061B53EC112BFCF771FE53EC182BFCF7B8
:1035A00014FF94ED040B53EC102BFCF767FE41EC79
:1035B000100B53EC182B51EC100BFCF706FF94ED9D
:1035C000021B53EC112BFCF759FE53EC182BFCF7A4
:1035D000FCFE94ED001B53EC112BFCF74FFEBDECF1
:1035E000028B41EC100B70BD31B504462DED040B80
:1035F0002DED0A8BB0EE41BAF0EE61BA0B989DED5D
:103600000A0B20F00040B0F1795F0DDA51EC100B9D
:10361000FFF708FA042808BF00F0AAF89DED0A0B8E
:10362000BDEC0A8B05B030BD53EC102B51EC100BE8
:10363000FCF7CBFE41EC180B9DED0A0B53EC182B5D
:1036400051EC100BFCF7C1FE41EC190B2C48B0EE0D
:10365000480AF0EE680A05217844FFF749FF9FED1C
:103660002ACBB0EE40AAF0EE60AA9CB353EC1C2B20
:1036700051EC190BFCF7A9FE41EC1C0B53EC1A2B77
:1036800051EC190BFCF7A1FE9FED210B41EC190B3E
:1036900053EC102B51EC1B0BFCF797FE53EC192B42
:1036A000FCF78DFE53EC182BFCF78FFE53EC1B2B15
:1036B000FCF785FE53EC1C2BFCF781FE9DED0A1BED
:1036C00053EC112BFCF77EFEBDEC0A8B05B041ECF0
:1036D000100B30BDFFE753EC1A2B51EC180BFCF725
:1036E00074FE53EC1C2BFCF7C9FD53EC192BFCF7B3
:1036F0006CFE9DED0A1B53EC112BFCF7BFFDE3E7BD
:10370000E423000000000000495555555555C5BF3C
:10371000000000000000E03F10B553EC102B51EC0E
:10372000100BFCF7ABFD41EC100B10BD00000000CE
:103730009FED050B10B553EC102B51EC100BFCF763
:10374000B6FE41EC100B10BD0000000000000000B0
:103750009FED050B10B553EC102B51EC100BFCF743
:1037600034FE41EC100B10BD0000000000000070A2
:103770009FED050B10B553EC102B51EC100BFCF723
:1037800024FE41EC100B10BD0000000000000010F2
:1037900002E008C8121F08C1002AFAD1704770471A
:1037A000002001E001C1121F002AFBD17047000078
:1037B0000149086070470000540200202DE9FF5FB6
:1037C000DDE90220010DDDF838B0024318D044F6DF
:1037D0001050A1F2FF3141430D140F98012820D061
:1037E000A5EB0B00401C5FEA000A4FF00004474EB7
:1037F000DFF81C91A046504616D5CAF1000728E014
:103800000F98012443A2012808D0002100980F9BA3
:10381000C0E90021C0E90243BDE8FF9F6FEA0B0148
:10382000F4E7CBF10000DEE7074612E0F80707D027
:103830002246334640464946FCF7C7FD8046894646
:103840002246334610461946FCF7BFFD04460E4695
:103850007F10002FEAD1DDE90201BAF1000F4246E4
:103860004B4602DAFCF7B1FD01E0FCF720FE04460E
:103870000E460022284BFDF769F803D84FF0FF30C1
:10388000014607E00022254B20463146FCF7F6FCB6
:10389000FDF72CF8102409E0002C0ADB0A22002393
:1038A000FCF7F6FE019B30321A55641E50EA010205
:1038B000F2D1641C019AC4F1110314440F9A012A35
:1038C00003D0012208430DD10AE0084304D00020B0
:1038D0004FF0110B0F9080E7A3EB0B056D1E0DE071
:1038E0005B4504DD4FF0000205F1010504E003DA59
:1038F0004FF00002A5F10105002AECD000980F99C5
:10390000C0E90231C0E9004586E70000000024401C
:103910000000F03F300000000000F0430000E03FF6
:103920002DE9FF4F95B09B468946064600250FE2DC
:10393000252877D100242746F84A0121059400E084
:10394000044316F8013F203B01FA03F01042F7D17F
:1039500030782A2811D06FF02F033078A0F1300290
:10396000092A16D8059A44F0020402EB820203EBFE
:1039700042021044761C0590EFE759F8042B05929B
:10398000002A03DA504244F40054059044F0020443
:10399000761C30782E2816D116F8010F44F0040456
:1039A0002A280DD06FF02F023078A0F13003092BB8
:1039B00009D807EB870302EB4303C718761CF3E72C
:1039C00059F8047B761C30786C280FD006DC4C2824
:1039D00017D068280DD06A2814D104E0742810D0BC
:1039E0007A280FD10DE044F400140AE044F4801466
:1039F00001E044F440147278824202D104F580144C
:103A0000761C761C307866280BD013DC582877D0CB
:103A100009DC002875D04528F6D04628F4D0472880
:103A20001AD19DE118E0632835D0642879D0652843
:103A300012D195E1702873D008DC6728F1D069288D
:103A40006FD06E280DD06F2806D1B5E073282CD02A
:103A5000752875D0782874D05A46179990476D1CF0
:103A600075E1C4F30250022809D003280DD0D9F81B
:103A7000001004280DD00D6009F1040967E1D9F8A0
:103A80000010EA17C1E90052F6E7D9F800100D80DE
:103A9000F2E70D70F0E719F8041B8DF80010002014
:103AA0008DF80100EA46012003E059F804AB4FF01D
:103AB000FF3061074FF0000102D40DE008F1010171
:103AC0008846B9420FDA8045F8DB1AF80810002959
:103AD000F4D108E008F1010188468142FADB1AF8C6
:103AE00008100029F6D105985B46A0EB080721468F
:103AF0003846179A00F094FA284400EB080507E0CE
:103B00004DE029E10DE01AF8010B5A46179990474C
:103B1000B8F10108F7D25B4621463846179A13E1FF
:103B200042E00A220092C4F302524FF0000A022A35
:103B300008D059F804CB032A4FEAEC710AD00DE003
:103B400029E02AE009F1070121F00702F2E802C1A9
:103B5000914609E00FFA8CFC4FEAEC71042A03D17C
:103B60004FFA8CFC4FEAEC71002907DA0A46002173
:103B7000DCF1000C61EB02012D2202E0220504D5EC
:103B80002B228DF80420012203E0E20701D020223D
:103B9000F7E7904659E00A2102E010220DE01021DB
:103BA0004FF0000A00910BE010224FF0000A44F0A1
:103BB00004040827009203E008224FF0000A009254
:103BC000C4F30252022A05D059F804CB0021032A7B
:103BD00008D009E009F1070121F00702F2E802C16B
:103BE000914605E01FFA8CFC042A01D10CF0FF0C71
:103BF0004FF00008220728D5702806D0009B83F0DC
:103C0000100353EA0A0305D00EE040228DF8042089
:103C1000012208E05CEA010206D030228DF804207F
:103C20008DF8050002229046009B83F0080353EABA
:103C30000A030AD15CEA010201D1620705D53022EC
:103C40008DF804204FF001087F1E582804D034A0BE
:103C500003900EA802900DE036A0F9E753466046A7
:103C6000009AFCF715FD84460398825C0298401E7A
:103C7000029002705CEA0100F0D1029806A9081ACD
:103C800000F1200A600702D524F4803400E0012707
:103C9000574502DDA7EB0A0000E0002000EB0A0117
:103CA000009005984144401A0590E00306D45B4615
:103CB0002146179A059800F0B3F90544002706E05D
:103CC00001A85A46C05D179990476D1C7F1C474557
:103CD000F6DBE0030CD55B462146179A059800F009
:103CE0009FF9054404E030205A46179990476D1C0F
:103CF0000099481E00900029F5DC08E0029802991E
:103D00005A460078491C0291179990476D1CBAF1E8
:103D10000001AAF1010AF1DC65E1000009280100B7
:103D20003031323334353637383961626364656631
:103D300000000000303132333435363738394142F3
:103D4000434445460000000000F058F90544761C45
:103D5000307800287FF4ECAD19B02846BDE8F08F2C
:103D6000620700D4062709F1070222F0070CFCE8DD
:103D70000223E14603F000485FEA080C02D00FF28C
:103D8000702C0DE05FEA045C02D50FF2682C07E0AE
:103D90005FEAC47C02D00FF2602C01E0AFF2700C3D
:103DA0004FF0FF3823F00043CDF850C065280CD009
:103DB00006DC452809D046281DD047283DD13DE0E6
:103DC000662818D067287ED138E00021112F01DB4A
:103DD000112000E0781CCDE9000106A90EA8FFF72C
:103DE000EDFCDDE90F010E9A03910021009207F12D
:103DF000010A04914DE04FF000400097CDE9011019
:103E000006A90EA8FFF7DAFCDDE90F0203920E9B6C
:103E100011990022DDF80CA00093049211B9791CCD
:103E200000EB010AB7EB0A0004D4C0F1FF3007F140
:103E3000010A0490AAEB0700019044E0012F00DA88
:103E400001270021112F01DD112000E03846CDE9C6
:103E5000000106A90EA8FFF7B1FCDDE90F010E9ADB
:103E60000391002104910092BA4621070CD40399D2
:103E7000514500DA8A46BAF1010F05DD009AAAF130
:103E80000101515C302908D0B84202DA10F1040F68
:103E900006DA0121CDE9011015E0AAF10101E9E7F7
:103EA000002805DC049901440491AAEB000102E01A
:103EB000411C514500DD8A460499401A401C01907E
:103EC0004FF000400290200704D40198504501DBD8
:103ED000CDF8048000208DF84F0002980DF14F07B7
:103EE000B0F1004F25D02B200E9002984FF0020821
:103EF00000280CDA404202902D200E9007E00A21A3
:103F00000298FCF7AFFB3031029007F8011DB8F1C1
:103F10000001A8F10108F2DC02980028EFD1791E17
:103F20000E980870307800F0200040F0450007F847
:103F3000020D12A8C01B00F107081498007800B108
:103F4000012000EB0A01019801EBE0710598414462
:103F5000401A401E0590E00306D45B462146179A9E
:103F6000059800F05DF805441498007818B15A4699
:103F7000179990476D1CE00324D55B462146179A9C
:103F8000059800F04DF805441CE00498002807DB74
:103F9000DDE90301884203DD0098405C179901E0E8
:103FA000179930205A469047049805F10105401CA6
:103FB00004900198401E019004D12E205A46179972
:103FC00090476D1CBAF10001AAF1010ADDDC05E0A1
:103FD00017F8010B5A46179990476D1CB8F100016C
:103FE000A8F10108F4DC5B462146179A0598ABE678
:103FF0002D0000002B000000200000002DE9F04102
:10400000044600251E461746880404D405E03946B8
:104010002020B0476D1C641EF9D52846BDE8F0810C
:104020002DE9F041044600251E469046C80301D5FF
:10403000302700E02027880404D505E041463846B3
:10404000B0476D1C641EF9D52846BDE8F08100001C
:104050002DE9F04F3C483D4A2DED028B95B00168AB
:104060003A480069081A506111611146C969491C32
:10407000D161FCF78BFA9FED361B53EC112BFCF74B
:1040800016FAFCF7D3FA08EE100A242232496846E1
:10409000FCF7A8F83048B0EE480A0C3890E80E005B
:1040A00009A800F015F92C48302209A90C38FCF7B2
:1040B00099F8DFF8A4A0AAF10C0ADAF82C00FCF7B2
:1040C000A2FA80468946DAF82800FCF79CFA0646F0
:1040D0000F46DAF82400FCF796FA04460D46DAF8A3
:1040E0002000FCF790FACDE90201DAF81C00FCF799
:1040F0008AFACDE90001DAF81800FCF784FA824662
:1041000012488B46C069FCF752FA9FED141B53EC22
:10411000112BFCF75AF941EC100B06A853EC102BAD
:1041200080E8F003DDE90201CDE90401DDE90001E9
:10413000CDE902010BA0CDE900ABFEF763FC15B0A1
:10414000BDEC028BBDE8F08F500000205400002031
:10415000666666660688D34070070020C976BE9FF3
:104160001A2FBD3F252E326620252E326620252EA1
:10417000326620252E326620252E326620252E32EC
:104180006620252E32660D0A0000000010B5044698
:104190000420FDF7DFFE0148046010BD1800002078
:1041A00070B5054600244FF47A7603E0304600F0FF
:1041B00005F8641CAC42F9D370BD000070B54FF037
:1041C000E02500216C69094AAB6912685043AA696D
:1041D0009A42FCD002D2A3EB020302E0A4EB020657
:1041E0003344194413468142F1D370BD18000020B6
:1041F00038B54FF4FA60FFF7D3FF00204FF40022E8
:104200000323D1000090FCF759FCC820FFF7D6FF2C
:1042100000210846FCF79AFD4FF4FA742046FFF798
:10422000BFFF0023642201211846FCF71FFDC820B0
:10423000FFF7B6FF0023642202211846FCF716FDA3
:10424000C820FFF7ADFF0023642203211846FCF7C6
:104250000DFDC820FFF7B2FF002364220421184699
:10426000FCF704FDC820FFF7A9FF00236422052105
:104270001846FCF7FBFCC820FFF7A0FF00236422D0
:1042800006211846FCF7F2FC2046FFF789FF0021C3
:1042900005220846FCF722FD2046BDE83840FFF71E
:1042A0007FBF82B0CDE9000121F0004001909DED7B
:1042B000000B02B051EC100B7047000003490A6874
:1042C0005206FCD5C2B24A6070470000001001409F
:1042D0000FB418212DED020B2DE9F04F2DED108BB1
:1042E00095B0F0EE40FA06A8FBF795FF18210CA850
:1042F000FBF791FFB7EE00FA18216846FBF78BFF3A
:104300009FEDFE0AFE4C8DED130A8DED120A94ED21
:10431000000AF0EE080A002520EE200A10EE100A2E
:10432000FCF771F99FEDF71B53EC112BFCF74DF8DF
:10433000FCF77CF99DED37DAB2EE04CA09EE100AFB
:104340002DEE0C0AD4ED019A10EE100AFCF75BF981
:1043500041EC100BFEF7E8FB9FEDEC8B51EC100BE2
:1043600053EC182BFBF78AFF41EC1A0B19EE100ADD
:10437000FCF749F953EC1A2BFCF799F8FAEE04CA4A
:1043800041EC1B0B2DEE2C0A10EE100AFCF73BF94A
:1043900041EC100BFEF7C8FB53EC182B51EC100B43
:1043A000FBF76CFF3FEE690A41EC1A0BC0EE290ADD
:1043B00060EE899A19EE900AFCF725F953EC1A2B56
:1043C000FCF775F853EC1B2BFBF758FFFCF72EF9A5
:1043D00000909DED38DA2DEE0C0A10EE100AFCF775
:1043E00012F941EC100BFEF79FFB53EC182B51EC2C
:1043F000100BFBF743FF41EC1A0B19EE100AFCF708
:1044000002F953EC1A2BFCF752F82DEE2C0A41EC72
:104410001B0B10EE100AFCF7F6F841EC100BFEF740
:1044200083FB53EC182B51EC100BFBF727FF41ECEF
:104430001A0B19EE900AFCF7E6F853EC1A2BFCF76E
:1044400036F853EC1B2BFBF719FFFCF7EFF8019044
:104450009DED39DA2DEE0C0A10EE100AFCF7D3F8B8
:1044600041EC100BFEF760FB53EC182B51EC100BDA
:10447000FBF704FF41EC1A0B19EE100AFCF7C3F826
:1044800053EC1A2BFCF713F82DEE2C0A41EC1B0B06
:1044900010EE100AFCF7B7F841EC100BFEF744FBE6
:1044A00053EC182B51EC100BFBF7E8FE41EC1A0B08
:1044B00019EE900AFCF7A7F853EC1A2BFBF7F7FF5D
:1044C00053EC1B2BFBF7DAFEFCF7B0F802909DEDE6
:1044D0003ADA2DEE0C0A10EE100AFCF794F841ECD3
:1044E000100BFEF721FB53EC182B51EC100BFBF7D4
:1044F000C5FE41EC1A0B19EE100AFCF784F853ECD8
:104500001A2BFBF7D4FF2DEE2C0A41EC1B0B10EEFF
:10451000100AFCF778F841EC100BFEF705FB53ECA2
:10452000182B51EC100BFBF7A9FE41EC1A0B19EEFE
:10453000900AFCF768F853EC1A2BFBF7B8FF53EC22
:104540001B2BFBF79BFEFCF771F803909DED3BDA0C
:104550002DEE0C0A10EE100AFCF755F841EC100B8A
:10456000FEF7E2FA53EC182B51EC100BFBF786FE2A
:1045700041EC1A0B19EE100AFCF745F853EC1A2B14
:10458000FBF795FF2DEE2C0A41EC1B0B10EE100AE9
:10459000FCF739F841EC100BFEF7C6FA53EC182B78
:1045A00051EC100BFBF76AFE41EC1A0B19EE900A66
:1045B000FCF729F853EC1A2BFBF779FF53EC1B2B74
:1045C000FBF75CFEFCF732F804909DED3CBA2BEE55
:1045D0000C0A10EE100AFCF716F841EC100BFEF76F
:1045E000A3FA53EC182B51EC100BFBF747FE41ECF0
:1045F0001A0B19EE100AFCF706F853EC1A2BFBF70E
:1046000056FF2BEE2C0A41EC1A0B10EE100AFBF7AA
:10461000FAFF41EC100BFEF787FA53EC182B51EC24
:10462000100BFBF72BFE41EC180B19EE900AFBF771
:10463000EAFF53EC182BFBF73AFF53EC1A2BFBF76E
:104640001DFEFBF7F3FF0DF1C40B05903C9880466F
:10465000FBF7D9FF41EC180B2E4805EB450600EBA4
:10466000C6046069FBF7CFFF41EC100BFEF708FCB6
:1046700053EC182B51EC100BFBF7A7FE41EC190B78
:104680003698FBF7C0FF41EC180B6069FBF7BBFFE6
:1046900041EC100BFEF7E4F953EC182B51EC100B26
:1046A000FBF793FE53EC192BFBF789FE41EC180B3B
:1046B0001848903000EBC6067069FBF7A4FF53EC76
:1046C000182BFBF782FE41EC1E0B3B98FBF79BFF80
:1046D00041EC180B2069FBF796FF41EC100BFEF73D
:1046E000CFFB53EC182B51EC100BFBF76EFE41EC9B
:1046F000190B3598FBF787FF0EE000000000C84259
:10470000400000204AD8124DFB2109400000000063
:104710000000F03F4C04002041EC180B2069FBF72F
:1047200072FF41EC100BFEF79BF953EC182B51EC88
:10473000100BFBF74AFE53EC192BFBF740FE41EC44
:10474000180B3069FBF75FFF53EC182BFBF73DFEAE
:1047500041EC1D0B3A98FBF756FF41EC180BE06853
:10476000FBF751FF41EC100BFEF78AFB53EC182BC3
:1047700051EC100BFBF729FE41EC190B3498FBF7B9
:1047800042FF41EC180BE068FBF73DFF41EC100BDA
:10479000FEF766F953EC182B51EC100BFBF715FEE6
:1047A00053EC192BFBF70BFE41EC180BF068FBF7F1
:1047B0002AFF53EC182BFBF708FE41EC1C0B399831
:1047C000FBF721FF41EC180BA068FBF71CFF41EC45
:1047D000100BFEF755FB53EC182B51EC100BFBF7AD
:1047E000F4FD41EC190B3398FBF70DFF41EC180B6E
:1047F000A068FBF708FF41EC100BFEF731F953EC12
:10480000182B51EC100BFBF7E0FD53EC192BFBF7C9
:10481000D6FD41EC180BB068FBF7F5FE53EC182BF6
:10482000FBF7D3FD41EC1B0B3898FBF7ECFE41EC9A
:10483000180B6068FBF7E7FE41EC100BFEF720FB5E
:1048400053EC182B51EC100BFBF7BFFD41EC190B8F
:104850003298FBF7D8FE41EC180B6068FBF7D3FEEB
:1048600041EC100BFEF7FCF853EC182B51EC100B3D
:10487000FBF7ABFD53EC192BFBF7A1FD41EC180B3B
:104880007068FBF7C0FE53EC182BFBF79EFD41EC64
:104890001A0B3798FBF7B7FE41EC180B2068FBF7B3
:1048A000B2FE41EC100BFEF7EBFA53EC182B51EC77
:1048B000100BFBF78AFD41EC190B3198FBF7A3FEB7
:1048C00041EC180B2068FBF79EFE41EC100BFEF745
:1048D000C7F853EC182B51EC100BFBF776FD53EC9B
:1048E000192BFBF76CFD41EC180B3068FBF78BFEC6
:1048F00053EC182BFBF769FD0BEB8507B0EE4F1A55
:10490000D7ED000A97ED060ADDED131A00EEE01A66
:1049100041EC180B684600EB850A00EE401A21EEC8
:10492000211A61EE200A9AED001A41EE400A10EEBB
:10493000900AFBF768FE53EC182BFBF79FFC53EC37
:104940001A2BFBF79BFC53EC1B2BFBF797FC53EC50
:104950001C2BFBF793FC53EC1D2BFBF78FFC53EC4C
:104960001E2BFBF78BFCFBF761FE06A901EB85090B
:10497000C9F800004046FBF746FE41EC180B6069A1
:10498000FBF741FE41EC100BFEF76AF853EC182BD5
:1049900051EC100BFBF719FD41EC190B3698FBF7A6
:1049A00032FE41EC180B6069FBF72DFE41EC100B59
:1049B000FEF766FA53EC182B51EC100BFBF705FDD4
:1049C00053EC192BFBF75AFC41EC180B7069FBF701
:1049D0001AFE53EC182BFBF7F8FC41EC1E0B3B982E
:1049E000FBF711FE41EC180B2069FBF70CFE41ECC4
:1049F000100BFEF735F853EC182B51EC100BFBF7AE
:104A0000E4FC41EC180B3598FBF7FDFD41EC190B6C
:104A10002069FBF7F8FD41EC100BFEF731FA53EC7F
:104A2000192B51EC100BFBF7D0FC53EC182BFBF7B8
:104A300025FC41EC180B3069FBF7E5FD53EC182B16
:104A4000FBF7C3FC41EC1D0B3A98FBF7DCFD41EC96
:104A5000180BE068FBF7D7FD41EC100BFEF700F8F0
:104A600053EC182B51EC100BFBF7AFFC41EC190B7E
:104A70003498FBF7C8FD41EC180BE068FBF7C3FD69
:104A800041EC100BFEF7FCF953EC182B51EC100B1A
:104A9000FBF79BFC53EC192BFBF7F0FB41EC180BDD
:104AA000F068FBF7B0FD53EC182BFBF78EFC41ECE4
:104AB0001C0B3998FBF7A7FD41EC180BA068FBF71E
:104AC000A2FD41EC100BFDF7CBFF53EC182B51EC82
:104AD000100BFBF77AFC41EC190B3398FBF793FDB5
:104AE00041EC180BA068FBF78EFD41EC100BFEF7B4
:104AF000C7F953EC182B51EC100BFBF766FC53EC89
:104B0000192BFBF7BBFB41EC180BB068FBF77BFDE7
:104B100053EC182BFBF759FC41EC1B0B3898FBF7B7
:104B200072FD41EC180B6068FBF76DFD41EC100B5A
:104B3000FDF796FF53EC182B51EC100BFBF745FCDF
:104B400041EC190B3298FBF75EFD41EC180B6068E5
:104B5000FBF759FD41EC100BFEF792F953EC182BC3
:104B600051EC100BFBF731FC53EC192BFBF786FBD8
:104B700041EC180B7068FBF746FD53EC182BFBF764
:104B800024FC41EC1A0B3798FBF73DFD41EC180B68
:104B90002068FBF738FD41EC100BFDF761FF53EC8B
:104BA000182B51EC100BFBF710FC41EC190B319852
:104BB000FBF729FD41EC180B2068FBF724FD41ECC5
:104BC000100BFEF75DF953EC182B51EC100BFBF7B3
:104BD000FCFB53EC192BFBF751FB41EC180B306835
:104BE000FBF711FD53EC182BFBF7EFFBD7ED009A09
:104BF000B0EE4F0A97ED069A09EEE90ADDED120ACA
:104C000041EC180B09EE490A20EE200ADAED000A01
:104C100020EE090A00EEA90A10EE100AFBF7F3FCD9
:104C200053EC182BFBF72AFB53EC1A2BFBF726FB54
:104C300053EC1B2BFBF722FB53EC1C2BFBF71EFB4F
:104C400053EC1D2BFBF71AFB53EC1E2BFBF716FB4B
:104C5000FBF7ECFC00EE100A0CA800EB850000EE60
:104C60002F9A80ED000AD9ED000A6D1C062D40EE4A
:104C7000AF9AC7ED009A87ED069AFFF6E7AC3022AF
:104C800031A93098FBF7AEFA15B0BDEC108BBDE83A
:104C9000F00F5DF81CFB00002DE9F04FDFF894C326
:104CA000DFF894A34FF001080CF1980900269FED5E
:104CB000E30AE34FA9F168020AF1780302F118054B
:104CC000CCF81800062854D187ED030A87ED120AA4
:104CD00087ED0A0A87ED190A87ED110A394687ED33
:104CE000200ADFEDD80AC7ED020A9FEDD71A87ED3B
:104CF0000C1A87ED061A87EC020AC7ED080A87ED41
:104D00000D1A87ED070AC7ED160A81ED1B1AC1EDD2
:104D1000170A81ED211AC1ED1D0A81ED221AC1ED9C
:104D2000040A81ED181AC1ED050A81ED1E1A81ED04
:104D3000091AC1ED130AC1ED0B0A81ED1F1A81EDAD
:104D40000F1AC1ED140AC1ED100A87ED1A1ACCF83A
:104D50000460DCF804104AF8210059F8214043F8B7
:104D60002140565405F80180491CCCF8041006294E
:104D7000EFDBB1493031072850D087ED020A87EDCB
:104D8000040A87ED050A87ED090A87ED0B0A87ED0E
:104D90000C0A87ED0E0A87ED0F0A87ED100A87EDE2
:104DA000130A87ED140A87ED150A87ED170A87EDB8
:104DB000180A3C4687ED1A0A87ED1C0A84ED1E0A84
:104DC00084ED1F0A84ED210A84ED230A8E46B24643
:104DD000AB469FED9E1ADFED9E0ACCF80460954D20
:104DE000DCF80410B03501EB410755F821600EEBFB
:104DF0008705AE608F4EC836042856F821606E6075
:104E00008D4D45F8210055460BF801A050D00528DE
:104E10007DD002287CD003287BD003E1D346DFF885
:104E200034E2CA46B0463C469946CCF80460DCF809
:104E3000043003EB43064BF8230084ED030A84EDB2
:104E4000120A84ED0A0A84ED190A84ED110A84ED30
:104E5000200A84ED020A84ED080A84ED010A84ED3B
:104E6000060A84ED000A84ED0D0A84ED070A84ED3C
:104E7000160A84ED1B0A84ED1D0A84ED220A01EB5B
:104E800086065EF82370B760724F183757F82370A4
:104E900077605AF8237049F8237002F8038005F808
:104EA00003805B1CCCF80430062BC0DBBDE8F08F20
:104EB00084ED030A84ED120A84ED0A0A84ED190ACE
:104EC00084ED110A84ED200A84ED011AC4ED060A6E
:104ED00084ED000A84ED081AC4ED0D0A84ED070A7A
:104EE00084ED161AC4ED1B0A84ED1D1AC4ED220AC6
:104EF00084ED041AC4ED180A84ED091AC4ED130AEE
:104F000084ED171AC4ED210A84ED101A02E006E0C0
:104F10003EE060E0474DC4ED1A0A503531E084EDC3
:104F2000030A84ED120A84ED0A0A84ED190A84ED5D
:104F3000110A84ED200A84ED011AC4ED060A84EDFD
:104F4000000A84ED081AC4ED0D0A84ED070A84ED09
:104F5000161AC4ED1B0A84ED1D1AC4ED220A84ED55
:104F6000041AC4ED180A84ED091AC4ED130A84ED7D
:104F7000171AC4ED210A2F4D84ED101AC4ED1A0A38
:104F8000683555F8215043F8215002F8018049E076
:104F900084ED031AC4ED120A84ED0A1AC4ED190A4D
:104FA00084ED111AC4ED200A84ED011AC4ED060A3D
:104FB00084ED000A84ED081AC4ED0D0A84ED070A99
:104FC00084ED161AC4ED1B0A84ED1D1AC4ED220AE5
:104FD00059F8216023E084ED031AC4ED120A84ED30
:104FE0000A1AC4ED190A84ED111AC4ED200A84EDE1
:104FF000011AC4ED060A84ED000A84ED081AC4ED16
:105000000D0A84ED070A84ED161A0A4EC4ED1B0A38
:1050100084ED1D1A8036C4ED220A56F8216043F84B
:1050200021605554491CCCF804100629FFF6D7AE70
:105030003CE7000054000020A8050020000000000C
:105040004C0400204CBE0C404CBE0CC0DA0F494052
:10505000DA0F49C0340700202DE9FC5F4FF000094A
:10506000DFF800A4CDF80090CDF80490FE4DCAF80A
:105070000490A5F1300B05F19006DAF80440E11C2C
:1050800009B2022C01DDE11E09B2F84B03EB8400EA
:10509000A3F1F00290ED060AA3F5967000EB8400F0
:1050A00002EB840280ED000AA3F58A7000EB840015
:1050B000D0ED000A70EE600AC2ED000AF5EEC00AFB
:1050C00080ED000AF1EE10FA7ED2D0466CB9E848C5
:1050D000E84AD0ED000AC8ED020A92ED001A80ED10
:1050E000001AC1EE201AC8ED031ADFF87CE35BF862
:1050F0002400AEF1180E5EF82420824203D1D94A72
:105100004232125DF2B3D74A012742321755A2F15B
:1051100012073F5D002F03EB810797ED061A70EE33
:10512000410A0DD0F5EEC00AF1EE10FA01DC71EE85
:10513000400ADFF844C310EE907A674521DD0CE0A9
:10514000F5EEC00AF1EE10FA01DC71EE400ADFF86C
:105150002CC310EE907A674513DA06281DD103EBB5
:10516000810191ED061A70EE410AF5EEC00AF1EEEA
:1051700010FA01DC71EE400ABF4B10EE901A994212
:105180000BDC00E009E0B84904EB4403483151F876
:10519000241045F8231002F8049004EB4401B24BAC
:1051A00005EB81014EF82400B433896843F82410DC
:1051B000B3494FF4FA4251F82410B1FBF2F702FB65
:1051C00017110A2904D800E095E001210DF8041018
:1051D000DFF898E2D8F82020AEF1480E5EF82410EF
:1051E000914218D2062802D0072811D046E0D8F8FC
:1051F0002800814201D2A3483CE002D94FF00100CF
:1052000001E04FF00000904238D29E48183031E063
:105210009C4860382EE0954F603F57F824709742C5
:1052200002D94FF0010C01E04FF0000C8F4F903F7E
:1052300057F82470BC4521D2062802D0072817D081
:105240001CE0914201D9012000E00020D8F828C0DC
:105250006244904202D28B4830300BE08A4201D245
:10526000012000E00020B84208D28648483001E022
:105270008448483850F8240043F82400794A3632EC
:10528000105D68B17948794F6038903F50F824003C
:1052900047F8240047088008C8F82470C8F82C0094
:1052A0007248783850F824700A2F16D953F8240021
:1052B000D8ED030AC0EB401303EB8010B0FBF7F00E
:1052C00000B200EE100AB8EEC00A20EE200ABDEED1
:1052D000C00A10EE100AAAF80200624B02F804900D
:1052E0003C3301221A55614A603A491C42F8249025
:1052F0004EF82410AAE0F5EEC00A5246F1EE10FA7C
:105300007EDD04EB440005EB8000416856488E4684
:10531000B43040F8241000F1780151F82470516A3B
:105320008F421BD25BF82430062B02D0072B12D001
:105330004AE0D36A9F4203D2524901F160013CE046
:1053400002D94FF0010301E04FF000038B423BD242
:105350004C49783131E04B4930392EE001D90123F5
:1053600000E00023DFF804C1ACF1900C5CF824C02D
:10537000634529D25BF82430062B02D0072B1AD0C4
:1053800020E08F4201D9012300E00023D2F82C80D5
:1053900041448B4205D23B4B903353F8243040F8C4
:1053A0002430B94201D2012100E00021614509D237
:1053B0003449A83101E03349183951F8241040F834
:1053C000241001E040F824E026493C31095D59B140
:1053D0002649264B4839783B51F8241043F82410CD
:1053E0004B088908136291622049903951F82410C2
:1053F0000A291BD950F824004622D046504300E029
:1054000024E0B0FBF1F0FBF7D2F8FBF7DDF800B2D7
:1054100000EE100AD8ED030AB8EEC00A20EE200A0A
:10542000BDEEC00A10EE100AA8F800000D480121D8
:1054300036300155811D01F804900C494839A1F11D
:10544000180041F824907F1C40F82470064852460A
:10545000B43000F1300750F8241057F82400081A2F
:1054600012E0000054000020D8050020640700204E
:10547000400000204C0000200AD7A33CCDCC4C3F7C
:105480003404002094010020A7F1180343F82400FD
:1054900047F8241004EB440155F82110012902D0EB
:1054A000491C08D010E0002802DA00F5B47006E0CC
:1054B0000ADD108806E000280DDDA0F5B47043F881
:1054C0002400508826F814005BF82400062804D035
:1054D000072802D005E0ECDBF6E74FF4FA7026F877
:1054E000140053F8240000EE100A0A48B8EEC00A6F
:1054F00000EB840100EB440081ED000A36F8141043
:10550000641C0183CAF80440062CFFF6B6ADBDE862
:10551000FC9F000070020020F0B500252DED048BEB
:1055200083B028465749009501950A8812047DD515
:105530000880052254A15648FAF784FE544C98B9C5
:105540000122611D6846FAF771FE6846FAF789FE86
:10555000FBF71CF89FED4F1B53EC112BFAF7A7FF3D
:10556000FBF764F84D49086005224DA14848FAF759
:1055700069FE70B90122611D6846FAF757FE684658
:10558000FAF76FFE00EE100A4748B8EEC00A80ED49
:10559000000A012245A13E48FAF754FE18BB012239
:1055A000611C6846FAF742FE9FED419B424F05EBB6
:1055B00045000024B0EE498AF0EE698A07EBC00688
:1055C0006846FAF74EFEFAF7E1FF53EC182BFAF7AC
:1055D000FCFEFBF72BF846F82400641C062CEFDBDE
:1055E0006D1C062DE3DB042234A12948FAF72AFEBC
:1055F00010B90420FFF750FB042232A12448FAF727
:1056000021FE10B90520FFF747FB04222FA12048F7
:10561000FAF718FE10B90220FFF73EFB04222DA175
:105620001B48FAF70FFE20B9032000E026E0FFF741
:1056300033FB042229A11648FAF704FE10B906200C
:10564000FFF72AFB042227A11148FAF7FBFD10B946
:105650000720FFF721FB042224A10D48FAF7F2FDF1
:1056600010B92448FCF7DEFC052223A10848FAF70C
:10567000E9FD002802D11F48FCF7C8FC03B0BDECCF
:10568000048BF0BD1E0000206265746156000000AE
:10569000940200200000000000002440440000208C
:1056A0006F6D6761560000004C0000206B00000029
:1056B0006666666666660640DC0400206C65667495
:1056C0000000000072696774000000006677726471
:1056D000000000006261636B000000007374697277
:1056E00000000000636C696D0000000073746F704F
:1056F000000000006C0500207374617274000000EB
:105700002DED028BB7EE008A86B00024F0EE488AB9
:10571000FCF75EF80823022219214FF4B470FCF75D
:1057200021FFB420FEF732FD4FF4E13000F0B8F86D
:10573000FCF7DEFEFCF79CFEFEF75AFD42F2273135
:105740000920FCF783FF19481A4D002690ED000A46
:10575000174841F2883780ED000A05EB8400641C8D
:1057600080ED008AC0ED068A0023E1B23A46184671
:105770000096FBF723FB24B2062CEEDB0E4DA5F1C1
:105780002804FEF765FCFFF7C7FEFFF765FC14224F
:1057900029466846FAF726FD04F118000FC800F004
:1057A0000DF83220FEF7FCFCEBE700004000002083
:1057B0004C00002064070020800200200FB4142158
:1057C00030B587B0002402A8FAF725FD30489FEDD8
:1057D000310ADFED310A0068304D0AA9019001EB72
:1057E000840090ED001A55F8240021EE001AC1EE55
:1057F000201A01EE100AB8EEC11A31EE811ABDEE80
:10580000C11A11EE100A45F82400641C062CE6DBD0
:10581000286800904FF47A64BDF940302246012197
:105820000020FBF7CBFA68680090BDF942302246B1
:1058300002210020FBF7C2FAA8680090BDF94430AD
:10584000224603210020FBF7B9FAE868BDF946308B
:1058500040420090224604210020FBF7AFFA28695D
:10586000BDF9483040420090224605210020FBF758
:10587000A5FA6869BDF94A304042009022460621E7
:105880000020FBF79BFA07B030BC5DF814FB00006A
:10589000D85800080000FA460000B443580200201F
:1058A0000B4910B5094AC1E9002000208860C86092
:1058B000086188610C2048610846FCF70AFDBDE8D4
:1058C0001040012203490248FCF770BD001001405E
:1058D0005C0300201C00002001000000000000000C
:1058E0000102030401020304060708090000000086
:1058F000000000000000E03F000000000000E0BFEA
:105900000000E0FE422EE63F0000E0FE422EE6BF31
:10591000763C7935EF39EA3D763C7935EF39EABDA9
:105920003E5555555555C53F93BDBE166CC166BF16
:105930002CDE25AF6A56113FF16BD2C541BDBBBE0F
:10594000D0A4BE726937663E4C5555555555A53F96
:105950007751C1166CC156BF9015CB19A001FA3E04
:10596000AD529C804F7E92BEC4B1B4BD9EEE213E2E
:10597000D43888BEE9FAA8BD00004054FB21F93FA5
:105980003163621A61B4D03D0000601A61B4D03D49
:105990007370032E8A19A33B0000002E8A19A33BC3
:1059A000C14920259A837B390000000000000000D7
:1059B0006E83F9A22915444ED15727FCC0DD34F57A
:1059C000999562DB4190433CAB6351FE61C5BBDE00
:1059D0003A6E24B7E0D24D42EA2E49061C92D10914
:1059E0001CEB1DFE3EA729B1F53582E88444BB2E91
:1059F00026709CE9417E5FB439D69139F4395383DE
:105A00008B5F849C3B28F9BDFF97F81F0F9805DE3C
:105A10008B112FEF1F6D0A5ACF7E366DB709CB273A
:105A2000663F464F2DEA5F9EC7BA27757BF1E5EBCF
:105A3000F739073DEA92528AB15FFB6B085D8D1F13
:105A4000A6F810111111813FD561C119A0012ABF1B
:105A50007DFEB157E31DC73EEB9C2B8AE6E55ABE9F
:105A60007CD5CF5A3AD9E53D0040404040404040C7
:105A70004040414141414140404040404040404021
:105A800040404040404040404005020202020202C5
:105A90000202020202020202022020202020202014
:105AA0002020200202020202020290909090909028
:105AB00010101010101010101010101010101010E6
:105AC000101010100202020202028888888888885A
:105AD0000808080808080808080808080808080846
